{"abi":[{"type":"constructor","inputs":[{"name":"_owners","type":"address[]","internalType":"address[]"},{"name":"_required","type":"uint256","internalType":"uint256"}],"stateMutability":"nonpayable"},{"type":"receive","stateMutability":"payable"},{"type":"function","name":"confirmTransaction","inputs":[{"name":"_txIndex","type":"uint256","internalType":"uint256"}],"outputs":[],"stateMutability":"nonpayable"},{"type":"function","name":"executeTransaction","inputs":[{"name":"_txIndex","type":"uint256","internalType":"uint256"}],"outputs":[],"stateMutability":"nonpayable"},{"type":"function","name":"isConfirmed","inputs":[{"name":"","type":"uint256","internalType":"uint256"},{"name":"","type":"address","internalType":"address"}],"outputs":[{"name":"","type":"bool","internalType":"bool"}],"stateMutability":"view"},{"type":"function","name":"isOwner","inputs":[{"name":"","type":"address","internalType":"address"}],"outputs":[{"name":"","type":"bool","internalType":"bool"}],"stateMutability":"view"},{"type":"function","name":"owners","inputs":[{"name":"","type":"uint256","internalType":"uint256"}],"outputs":[{"name":"","type":"address","internalType":"address"}],"stateMutability":"view"},{"type":"function","name":"required","inputs":[],"outputs":[{"name":"","type":"uint256","internalType":"uint256"}],"stateMutability":"view"},{"type":"function","name":"revokeConfirmation","inputs":[{"name":"_txIndex","type":"uint256","internalType":"uint256"}],"outputs":[],"stateMutability":"nonpayable"},{"type":"function","name":"submitTransaction","inputs":[{"name":"_to","type":"address","internalType":"address"},{"name":"_value","type":"uint256","internalType":"uint256"},{"name":"_data","type":"bytes","internalType":"bytes"}],"outputs":[],"stateMutability":"nonpayable"},{"type":"function","name":"transactions","inputs":[{"name":"","type":"uint256","internalType":"uint256"}],"outputs":[{"name":"to","type":"address","internalType":"address"},{"name":"value","type":"uint256","internalType":"uint256"},{"name":"data","type":"bytes","internalType":"bytes"},{"name":"executed","type":"bool","internalType":"bool"},{"name":"numConfirmations","type":"uint256","internalType":"uint256"}],"stateMutability":"view"},{"type":"function","name":"txCount","inputs":[],"outputs":[{"name":"","type":"uint256","internalType":"uint256"}],"stateMutability":"view"},{"type":"event","name":"Confirm","inputs":[{"name":"txIndex","type":"uint256","indexed":true,"internalType":"uint256"},{"name":"owner","type":"address","indexed":true,"internalType":"address"}],"anonymous":false},{"type":"event","name":"Execute","inputs":[{"name":"txIndex","type":"uint256","indexed":true,"internalType":"uint256"}],"anonymous":false},{"type":"event","name":"Revoke","inputs":[{"name":"txIndex","type":"uint256","indexed":true,"internalType":"uint256"},{"name":"owner","type":"address","indexed":true,"internalType":"address"}],"anonymous":false},{"type":"event","name":"Submit","inputs":[{"name":"txIndex","type":"uint256","indexed":true,"internalType":"uint256"},{"name":"owner","type":"address","indexed":true,"internalType":"address"},{"name":"to","type":"address","indexed":false,"internalType":"address"},{"name":"value","type":"uint256","indexed":false,"internalType":"uint256"},{"name":"data","type":"bytes","indexed":false,"internalType":"bytes"}],"anonymous":false},{"type":"error","name":"ReentrancyGuardReentrantCall","inputs":[]}],"bytecode":{"object":"0x608060405234801561000f575f5ffd5b50604051612071380380612071833981810160405281019061003191906104ae565b60015f819055505f82511161007b576040517f08c379a000000000000000000000000000000000000000000000000000000000815260040161007290610562565b60405180910390fd5b5f8111801561008b575081518111155b6100ca576040517f08c379a00000000000000000000000000000000000000000000000000000000081526004016100c1906105ca565b60405180910390fd5b5f5f90505b82518110156102b1575f8382815181106100ec576100eb6105e8565b5b602002602001015190505f73ffffffffffffffffffffffffffffffffffffffff168173ffffffffffffffffffffffffffffffffffffffff1603610164576040517f08c379a000000000000000000000000000000000000000000000000000000000815260040161015b9061065f565b60405180910390fd5b60025f8273ffffffffffffffffffffffffffffffffffffffff1673ffffffffffffffffffffffffffffffffffffffff1681526020019081526020015f205f9054906101000a900460ff16156101ee576040517f08c379a00000000000000000000000000000000000000000000000000000000081526004016101e5906106c7565b60405180910390fd5b600160025f8373ffffffffffffffffffffffffffffffffffffffff1673ffffffffffffffffffffffffffffffffffffffff1681526020019081526020015f205f6101000a81548160ff021916908315150217905550600181908060018154018082558091505060019003905f5260205f20015f9091909190916101000a81548173ffffffffffffffffffffffffffffffffffffffff021916908373ffffffffffffffffffffffffffffffffffffffff1602179055505080806001019150506100cf565b508060038190555050506106e5565b5f604051905090565b5f5ffd5b5f5ffd5b5f5ffd5b5f601f19601f8301169050919050565b7f4e487b71000000000000000000000000000000000000000000000000000000005f52604160045260245ffd5b61031b826102d5565b810181811067ffffffffffffffff8211171561033a576103396102e5565b5b80604052505050565b5f61034c6102c0565b90506103588282610312565b919050565b5f67ffffffffffffffff821115610377576103766102e5565b5b602082029050602081019050919050565b5f5ffd5b5f73ffffffffffffffffffffffffffffffffffffffff82169050919050565b5f6103b58261038c565b9050919050565b6103c5816103ab565b81146103cf575f5ffd5b50565b5f815190506103e0816103bc565b92915050565b5f6103f86103f38461035d565b610343565b9050808382526020820190506020840283018581111561041b5761041a610388565b5b835b81811015610444578061043088826103d2565b84526020840193505060208101905061041d565b5050509392505050565b5f82601f830112610462576104616102d1565b5b81516104728482602086016103e6565b91505092915050565b5f819050919050565b61048d8161047b565b8114610497575f5ffd5b50565b5f815190506104a881610484565b92915050565b5f5f604083850312156104c4576104c36102c9565b5b5f83015167ffffffffffffffff8111156104e1576104e06102cd565b5b6104ed8582860161044e565b92505060206104fe8582860161049a565b9150509250929050565b5f82825260208201905092915050565b7f6e656564203e3020206f776e65720000000000000000000000000000000000005f82015250565b5f61054c600e83610508565b915061055782610518565b602082019050919050565b5f6020820190508181035f83015261057981610540565b9050919050565b7f756e736166652072657175697265642076616c756500000000000000000000005f82015250565b5f6105b4601583610508565b91506105bf82610580565b602082019050919050565b5f6020820190508181035f8301526105e1816105a8565b9050919050565b7f4e487b71000000000000000000000000000000000000000000000000000000005f52603260045260245ffd5b7f616464726573732830292063616e6e6f74206265206f776e65720000000000005f82015250565b5f610649601a83610508565b915061065482610615565b602082019050919050565b5f6020820190508181035f8301526106768161063d565b9050919050565b7f6f776e65720000000000000000000000000000000000000000000000000000005f82015250565b5f6106b1600583610508565b91506106bc8261067d565b602082019050919050565b5f6020820190508181035f8301526106de816106a5565b9050919050565b61197f806106f25f395ff3fe608060405260043610610094575f3560e01c80639ace38c2116100585780639ace38c2146101a5578063c01a8c84146101e5578063c64274741461020d578063dc8452cd14610235578063ee22610b1461025f5761009b565b8063025e7c271461009f57806320ea8d86146100db5780632f54bf6e146101035780633c5406871461013f57806380f59a65146101695761009b565b3661009b57005b5f5ffd5b3480156100aa575f5ffd5b506100c560048036038101906100c09190610eaa565b610287565b6040516100d29190610f14565b60405180910390f35b3480156100e6575f5ffd5b5061010160048036038101906100fc9190610eaa565b6102c2565b005b34801561010e575f5ffd5b5061012960048036038101906101249190610f57565b610564565b6040516101369190610f9c565b60405180910390f35b34801561014a575f5ffd5b50610153610581565b6040516101609190610fc4565b60405180910390f35b348015610174575f5ffd5b5061018f600480360381019061018a9190610fdd565b610587565b60405161019c9190610f9c565b60405180910390f35b3480156101b0575f5ffd5b506101cb60048036038101906101c69190610eaa565b6105b1565b6040516101dc95949392919061108b565b60405180910390f35b3480156101f0575f5ffd5b5061020b60048036038101906102069190610eaa565b610694565b005b348015610218575f5ffd5b50610233600480360381019061022e9190611144565b61093a565b005b348015610240575f5ffd5b50610249610b5c565b6040516102569190610fc4565b60405180910390f35b34801561026a575f5ffd5b5061028560048036038101906102809190610eaa565b610b62565b005b60018181548110610296575f80fd5b905f5260205f20015f915054906101000a900473ffffffffffffffffffffffffffffffffffffffff1681565b60025f3373ffffffffffffffffffffffffffffffffffffffff1673ffffffffffffffffffffffffffffffffffffffff1681526020019081526020015f205f9054906101000a900460ff1661034b576040517f08c379a00000000000000000000000000000000000000000000000000000000081526004016103429061120f565b60405180910390fd5b806006548110610390576040517f08c379a000000000000000000000000000000000000000000000000000000000815260040161038790611277565b60405180910390fd5b8160045f8281526020019081526020015f206003015f9054906101000a900460ff16156103f2576040517f08c379a00000000000000000000000000000000000000000000000000000000081526004016103e9906112df565b60405180910390fd5b60055f8481526020019081526020015f205f3373ffffffffffffffffffffffffffffffffffffffff1673ffffffffffffffffffffffffffffffffffffffff1681526020019081526020015f205f9054906101000a900460ff1661048a576040517f08c379a000000000000000000000000000000000000000000000000000000000815260040161048190611347565b60405180910390fd5b5f60045f8581526020019081526020015f209050806004015f8154809291906104b290611392565b91905055505f60055f8681526020019081526020015f205f3373ffffffffffffffffffffffffffffffffffffffff1673ffffffffffffffffffffffffffffffffffffffff1681526020019081526020015f205f6101000a81548160ff0219169083151502179055503373ffffffffffffffffffffffffffffffffffffffff16847fd5d64031e0f55cf42bc3b7d0462f8404a4d63f7ccf84be9510cd6a5300552e4260405160405180910390a350505050565b6002602052805f5260405f205f915054906101000a900460ff1681565b60065481565b6005602052815f5260405f20602052805f5260405f205f915091509054906101000a900460ff1681565b6004602052805f5260405f205f91509050805f015f9054906101000a900473ffffffffffffffffffffffffffffffffffffffff16908060010154908060020180546105fb906113e6565b80601f0160208091040260200160405190810160405280929190818152602001828054610627906113e6565b80156106725780601f1061064957610100808354040283529160200191610672565b820191905f5260205f20905b81548152906001019060200180831161065557829003601f168201915b505050505090806003015f9054906101000a900460ff16908060040154905085565b60025f3373ffffffffffffffffffffffffffffffffffffffff1673ffffffffffffffffffffffffffffffffffffffff1681526020019081526020015f205f9054906101000a900460ff1661071d576040517f08c379a00000000000000000000000000000000000000000000000000000000081526004016107149061120f565b60405180910390fd5b806006548110610762576040517f08c379a000000000000000000000000000000000000000000000000000000000815260040161075990611277565b60405180910390fd5b8160045f8281526020019081526020015f206003015f9054906101000a900460ff16156107c4576040517f08c379a00000000000000000000000000000000000000000000000000000000081526004016107bb906112df565b60405180910390fd5b8260055f8281526020019081526020015f205f3373ffffffffffffffffffffffffffffffffffffffff1673ffffffffffffffffffffffffffffffffffffffff1681526020019081526020015f205f9054906101000a900460ff161561085e576040517f08c379a000000000000000000000000000000000000000000000000000000000815260040161085590611460565b60405180910390fd5b5f60045f8681526020019081526020015f209050806004015f8154809291906108869061147e565b9190505550600160055f8781526020019081526020015f205f3373ffffffffffffffffffffffffffffffffffffffff1673ffffffffffffffffffffffffffffffffffffffff1681526020019081526020015f205f6101000a81548160ff0219169083151502179055503373ffffffffffffffffffffffffffffffffffffffff16857fc95ae82c4b037741c3c05e3d395f1ebabbec626fd64107939531968fc71a9ba960405160405180910390a35050505050565b60025f3373ffffffffffffffffffffffffffffffffffffffff1673ffffffffffffffffffffffffffffffffffffffff1681526020019081526020015f205f9054906101000a900460ff166109c3576040517f08c379a00000000000000000000000000000000000000000000000000000000081526004016109ba9061120f565b60405180910390fd5b6040518060a001604052808573ffffffffffffffffffffffffffffffffffffffff16815260200184815260200183838080601f0160208091040260200160405190810160405280939291908181526020018383808284375f81840152601f19601f8201169050808301925050505050505081526020015f151581526020015f81525060045f60065481526020019081526020015f205f820151815f015f6101000a81548173ffffffffffffffffffffffffffffffffffffffff021916908373ffffffffffffffffffffffffffffffffffffffff160217905550602082015181600101556040820151816002019081610abb9190611692565b506060820151816003015f6101000a81548160ff021916908315150217905550608082015181600401559050503373ffffffffffffffffffffffffffffffffffffffff166006547f9ac53fe25fb7b6bf3a2764d5d5cbed09e65c7f1af0045800c5ff00f3116c47a286868686604051610b37949392919061179b565b60405180910390a360065f815480929190610b519061147e565b919050555050505050565b60035481565b610b6a610e22565b60025f3373ffffffffffffffffffffffffffffffffffffffff1673ffffffffffffffffffffffffffffffffffffffff1681526020019081526020015f205f9054906101000a900460ff16610bf3576040517f08c379a0000000000000000000000000000000000000000000000000000000008152600401610bea9061120f565b60405180910390fd5b806006548110610c38576040517f08c379a0000000000000000000000000000000000000000000000000000000008152600401610c2f90611277565b60405180910390fd5b8160045f8281526020019081526020015f206003015f9054906101000a900460ff1615610c9a576040517f08c379a0000000000000000000000000000000000000000000000000000000008152600401610c91906112df565b60405180910390fd5b5f60045f8581526020019081526020015f20905060035481600401541015610cf7576040517f08c379a0000000000000000000000000000000000000000000000000000000008152600401610cee90611823565b60405180910390fd5b6001816003015f6101000a81548160ff0219169083151502179055505f815f015f9054906101000a900473ffffffffffffffffffffffffffffffffffffffff1673ffffffffffffffffffffffffffffffffffffffff16826001015483600201604051610d6391906118cb565b5f6040518083038185875af1925050503d805f8114610d9d576040519150601f19603f3d011682016040523d82523d5f602084013e610da2565b606091505b5050905080610de6576040517f08c379a0000000000000000000000000000000000000000000000000000000008152600401610ddd9061192b565b60405180910390fd5b847fddb556f1d2c1ec821e910b019d3685b229db152a0ecd517ca7e24b8bd713928960405160405180910390a250505050610e1f610e66565b50565b60025f5403610e5d576040517f3ee5aeb500000000000000000000000000000000000000000000000000000000815260040160405180910390fd5b60025f81905550565b60015f81905550565b5f5ffd5b5f5ffd5b5f819050919050565b610e8981610e77565b8114610e93575f5ffd5b50565b5f81359050610ea481610e80565b92915050565b5f60208284031215610ebf57610ebe610e6f565b5b5f610ecc84828501610e96565b91505092915050565b5f73ffffffffffffffffffffffffffffffffffffffff82169050919050565b5f610efe82610ed5565b9050919050565b610f0e81610ef4565b82525050565b5f602082019050610f275f830184610f05565b92915050565b610f3681610ef4565b8114610f40575f5ffd5b50565b5f81359050610f5181610f2d565b92915050565b5f60208284031215610f6c57610f6b610e6f565b5b5f610f7984828501610f43565b91505092915050565b5f8115159050919050565b610f9681610f82565b82525050565b5f602082019050610faf5f830184610f8d565b92915050565b610fbe81610e77565b82525050565b5f602082019050610fd75f830184610fb5565b92915050565b5f5f60408385031215610ff357610ff2610e6f565b5b5f61100085828601610e96565b925050602061101185828601610f43565b9150509250929050565b5f81519050919050565b5f82825260208201905092915050565b8281835e5f83830152505050565b5f601f19601f8301169050919050565b5f61105d8261101b565b6110678185611025565b9350611077818560208601611035565b61108081611043565b840191505092915050565b5f60a08201905061109e5f830188610f05565b6110ab6020830187610fb5565b81810360408301526110bd8186611053565b90506110cc6060830185610f8d565b6110d96080830184610fb5565b9695505050505050565b5f5ffd5b5f5ffd5b5f5ffd5b5f5f83601f840112611104576111036110e3565b5b8235905067ffffffffffffffff811115611121576111206110e7565b5b60208301915083600182028301111561113d5761113c6110eb565b5b9250929050565b5f5f5f5f6060858703121561115c5761115b610e6f565b5b5f61116987828801610f43565b945050602061117a87828801610e96565b935050604085013567ffffffffffffffff81111561119b5761119a610e73565b5b6111a7878288016110ef565b925092505092959194509250565b5f82825260208201905092915050565b7f6f6e6c79206f776e65722072756e0000000000000000000000000000000000005f82015250565b5f6111f9600e836111b5565b9150611204826111c5565b602082019050919050565b5f6020820190508181035f830152611226816111ed565b9050919050565b7f7472616e73616374696f6e7320000000000000000000000000000000000000005f82015250565b5f611261600d836111b5565b915061126c8261122d565b602082019050919050565b5f6020820190508181035f83015261128e81611255565b9050919050565b7f7472616e73616374696f6e7320686164206265656e20657865637574656400005f82015250565b5f6112c9601e836111b5565b91506112d482611295565b602082019050919050565b5f6020820190508181035f8301526112f6816112bd565b9050919050565b7f646f6e7420626520436f6e6669726d65642c00000000000000000000000000005f82015250565b5f6113316012836111b5565b915061133c826112fd565b602082019050919050565b5f6020820190508181035f83015261135e81611325565b9050919050565b7f4e487b71000000000000000000000000000000000000000000000000000000005f52601160045260245ffd5b5f61139c82610e77565b91505f82036113ae576113ad611365565b5b600182039050919050565b7f4e487b71000000000000000000000000000000000000000000000000000000005f52602260045260245ffd5b5f60028204905060018216806113fd57607f821691505b6020821081036114105761140f6113b9565b5b50919050565b7f686164206265656e20636f6e6669726d656400000000000000000000000000005f82015250565b5f61144a6012836111b5565b915061145582611416565b602082019050919050565b5f6020820190508181035f8301526114778161143e565b9050919050565b5f61148882610e77565b91507fffffffffffffffffffffffffffffffffffffffffffffffffffffffffffffffff82036114ba576114b9611365565b5b600182019050919050565b7f4e487b71000000000000000000000000000000000000000000000000000000005f52604160045260245ffd5b5f819050815f5260205f209050919050565b5f6020601f8301049050919050565b5f82821b905092915050565b5f6008830261154e7fffffffffffffffffffffffffffffffffffffffffffffffffffffffffffffffff82611513565b6115588683611513565b95508019841693508086168417925050509392505050565b5f819050919050565b5f61159361158e61158984610e77565b611570565b610e77565b9050919050565b5f819050919050565b6115ac83611579565b6115c06115b88261159a565b84845461151f565b825550505050565b5f5f905090565b6115d76115c8565b6115e28184846115a3565b505050565b5b81811015611605576115fa5f826115cf565b6001810190506115e8565b5050565b601f82111561164a5761161b816114f2565b61162484611504565b81016020851015611633578190505b61164761163f85611504565b8301826115e7565b50505b505050565b5f82821c905092915050565b5f61166a5f198460080261164f565b1980831691505092915050565b5f611682838361165b565b9150826002028217905092915050565b61169b8261101b565b67ffffffffffffffff8111156116b4576116b36114c5565b5b6116be82546113e6565b6116c9828285611609565b5f60209050601f8311600181146116fa575f84156116e8578287015190505b6116f28582611677565b865550611759565b601f198416611708866114f2565b5f5b8281101561172f5784890151825560018201915060208501945060208101905061170a565b8683101561174c5784890151611748601f89168261165b565b8355505b6001600288020188555050505b505050505050565b828183375f83830152505050565b5f61177a8385611025565b9350611787838584611761565b61179083611043565b840190509392505050565b5f6060820190506117ae5f830187610f05565b6117bb6020830186610fb5565b81810360408301526117ce81848661176f565b905095945050505050565b7f7265717569726564206973206c657373207468616e206e6565640000000000005f82015250565b5f61180d601a836111b5565b9150611818826117d9565b602082019050919050565b5f6020820190508181035f83015261183a81611801565b9050919050565b5f81905092915050565b5f8154611857816113e6565b6118618186611841565b9450600182165f811461187b5760018114611890576118c2565b60ff19831686528115158202860193506118c2565b611899856114f2565b5f5b838110156118ba5781548189015260018201915060208101905061189b565b838801955050505b50505092915050565b5f6118d6828461184b565b915081905092915050565b7f7472616e73616374696f6e206661696c656400000000000000000000000000005f82015250565b5f6119156012836111b5565b9150611920826118e1565b602082019050919050565b5f6020820190508181035f83015261194281611909565b905091905056fea2646970667358221220be84284dc6aba4a0a7c17f0778520ba731bb8d1cf67c70bd9706ca7648a04f7564736f6c634300081e0033","linkReferences":{}},"methodIdentifiers":{"confirmTransaction(uint256)":"c01a8c84","executeTransaction(uint256)":"ee22610b","isConfirmed(uint256,address)":"80f59a65","isOwner(address)":"2f54bf6e","owners(uint256)":"025e7c27","required()":"dc8452cd","revokeConfirmation(uint256)":"20ea8d86","submitTransaction(address,uint256,bytes)":"c6427474","transactions(uint256)":"9ace38c2","txCount()":"3c540687"},"id":20}